:020000040800F2
:1000000018150020010100085F440008053C0008A5
:100010005D44000865100008295500080000000034
:10002000000000000000000000000000E14B00089C
:10003000911300080000000061440008E14F00082F
:100040001B0100081B0100081B0100081B01000820
:100050001B0100081B0100081B0100081B01000810
:100060001B0100081B0100081B0100081B01000800
:100070001B0100081B0100081B0100081B010008F0
:100080001B0100081B0100081B0100081B010008E0
:100090001B0100081B0100081B0100081B010008D0
:1000A0001B0100081B0100081B0100081B010008C0
:1000B0001B0100081B0100081B0100081B010008B0
:1000C0001B0100081B0100081B0100081B010008A0
:1000D0001B010008115500081D5500081B010008F0
:1000E0001B0100081B0100081B010008DFF80CD0F1
:1000F00000F0C0FD004800474D66000818150020BC
:100100000648804706480047FEE7FEE7FEE7FEE7B1
:10011000FEE7FEE7FEE7FEE7FEE7FEE74F500008DA
:10012000ED000008202A04DB203A21FA02F0002129
:10013000704721FA02F3D040C2F1200291400843F7
:1001400019467047A0F14101192900D820307047A5
:1001500040EA01039B0703D009E008C9121F08C049
:10016000042AFAD203E011F8013B00F8013B521EC9
:10017000F9D27047D2B201E000F8012B491EFBD240
:1001800070470022F6E710B513460A4604461946A2
:10019000FFF7F0FF204610BD421E12F8013F002B72
:1001A000FBD111F8013B02F8013B002BF9D170475C
:1001B00030B505462A460B4612F8010B13F8014BE1
:1001C00008B1A042F8D01CB1002802D06D1CF1E7A4
:1001D000284630BD421C10F8011B0029FBD1801AB3
:1001E000704710B5002200E0521C835C8C5CA34277
:1001F00001D1002BF8D1D8B2E1B2401A10BD30B510
:1002000005460020034600E05B1C934205D2EC5CEF
:10021000C85C201A01D1002CF6D130BD2DE9FF4F6A
:10022000087881B09946FF2805D0491C2D2804D0B4
:100230000024002308E000230BE00124F9E703EB8E
:10024000830300EB4303491C0878FF28F7D104B16E
:100250005B4200200090147801462D2C01D02B2CFD
:1002600004D1521C2D2C12D00024009400251678A5
:10027000FF2E0ED00A24A0FB04C801FB0481002736
:1002800000FB0711521C16EB0C006941EFE701243B
:10029000EBE7994450EA01020ED00024AA4D26460D
:1002A000DFF8A88200F0A6FC82468B46B9F1000078
:1002B00009DAC9F100071BE001980021C0E900112B
:1002C00005B0BDE8F08F074612E0F80707D02246D8
:1002D0002B463046414600F0ACFB06468846224697
:1002E0002B461046194600F0A4FB04460D467F102D
:1002F000002FEAD1B9F1000F324643465046594625
:1003000002DA00F008FC01E000F093FB009A0AB169
:1003100081F00041019AC2E90001D1E72DE9FF4FC8
:100320001F468DB0D7E901464FF0FF382E204546D5
:100330004FF000090B90B9696D1C0E988847396A17
:10034000824688470028F6D1BAF1FF3F0AD024F44C
:10035000D064002E11DDBAF12B0F08D0BAF12D0FA9
:100360000BD102E0404611B0ABE744F48064B969B8
:100370006D1C0E9888478246761E6946600501D539
:100380002D2000E02B208DF8000001F1010B0DF174
:10039000200809E0B9696D1C0E98884782460F98BD
:1003A00044F40074761E0560002E02DDBAF1300FB1
:1003B000F0D00B998A453ED144F0800406E00F99B5
:1003C000681CA9F1010944F400740860B9696D1C46
:1003D000761E0E98884782463028F0D02BE00B9985
:1003E0008A4505D1200603D444F08004761E18E027
:1003F000504605F0A5FB08B30DF11301761E44F439
:1004000000748B4508D2AAF130000BF8010B2006CE
:1004100007D5A9F1010003E0200602D409F101008B
:100420008146A00502D50F99681C0860B9696D1C4A
:100430000E9888478246002ED1DC53E0002E51DD15
:10044000BAF1650F02D0BAF1450F4BD1A00549D5DD
:10045000B9696D1C24F44074761E0E988847824654
:10046000002E0CDD2B2804D0BAF12D0F07D144F457
:100470008074B9696D1C0E9888478246761EE00527
:1004800001D52D2100E02B2108F8011BCDF82C808F
:1004900021E00DF12901761E44F4007488450CD248
:1004A000AAF1300010F0FF0088F8000002D10B998B
:1004B000884509D908F1010806E0E00501D524487E
:1004C00001E042F20F708146B9696D1C0E988847B1
:1004D00082460F980560002E04DD504605F030FB83
:1004E0000028D6D1F9690E988847FF208BF80000C4
:1004F00088F800000020069007904B466A4608A93D
:1005000006A8FFF78BFEA00502D46FF001002AE7D2
:1005100014F0240F0AD0E00714D1DDE90612386880
:10052000031D3B600068C0E900120BE0DDE9060135
:1005300000F084FB0146E00704D13868021D3A60F0
:100540000068016028460EE7000024400000F03FEC
:10055000F1D8FFFF70B5064605F0D6F904680546E8
:100560000A220021304600F0CFF92C6070BD2DE941
:10057000FE4F804681EA0300C00F0C46009021F038
:10058000004123F00045B8EB0200A94105D24046E6
:10059000214690461C460B46024623F0004010437D
:1005A00047D0270DC7F30A00C3F30A510290401A3F
:1005B000019040286BDAC3F3130040F4801B0098CD
:1005C000924620B10023D2EB030A63EB0B0B019898
:1005D0005946C0F14002504600F007F906460D4664
:1005E00050465946019A00F00FF910EB080061419E
:1005F000002487EA115284EAE7731A4340D0009A34
:1006000062B3019A012A4FEA075215DC001B61EB25
:1006100002014FF0004202EA0752CDE90042001CFD
:1006200041F5801132462B4600F0B5F903B0BDE824
:10063000F08F40462146F9E7001B61EB0201001CE8
:1006400041F5801300185B412018A2F5001747EB15
:10065000030140EAD570B6196D4111E06D084FEA0B
:10066000360645EAC0754FEA0752001B61EB0201EE
:10067000001C41F5801149084FEA30000019514132
:1006800032462B4603B0BDE8F04F00F075B9009834
:10069000012240000023D0EB020263EBE0730098DC
:1006A00021464FEAE074B8EB000061EB0401E9E792
:1006B00083F000435BE781F0004158E770B5C1F378
:1006C0000A5201F000450024C1F3130140F2FF3348
:1006D00041F480119A4201DA002070BD40F23343A8
:1006E0009A42A2F2334203DC5242FFF71BFD00E0C4
:1006F00090402C43F1D0404270BD000030B5041E44
:1007000071F1000404DB4FF00044404264EB01014E
:10071000141E73F1000405DB1C464FF000435242E7
:1007200063EB04038B4208BF824230BD30B5041E28
:1007300071F1000404DB4FF00044404264EB01011E
:10074000141E73F1000405DB1C464FF000435242B7
:1007500063EB0403994208BF904230BD30B50B46AD
:10076000014600202022012409E021FA02F59D42E1
:1007700005D303FA02F5491B04FA02F52844151EB5
:10078000A2F10102F1DC30BD2DE9F05F0546002049
:1007900092469B4688460646814640241BE02846F2
:1007A000414647462246FFF7BDFC53465A46C01A0B
:1007B000914110D311461846224600F016F82D1A22
:1007C00067EB01084F4622460120002100F00DF89A
:1007D00017EB00094E41201EA4F10104DFDC48465E
:1007E00031462A464346BDE8F09F202A04DB203AE2
:1007F00000FA02F1002070479140C2F1200320FA74
:1008000003F3194390407047202A06DBCB17203AA8
:1008100041FA02F043EAE07306E041FA02F3D04005
:10082000C2F120029140084319467047426842B124
:10083000016811F8013B23B1521EC0E900121846AD
:1008400070470121C160881E704742685AB1C36871
:10085000016843B983688B4205D0491E521CC0E928
:100860000012002070474FF0FF3070470FB4002394
:1008700000B589B00CA900910B996FF00042CB60D4
:100880001E4B06931E4B07930423CDE901321D4AEC
:10089000089202466B460020FFF740FD09B05DF864
:1008A00014FB70B586B006464FF0FF300091CDE9DD
:1008B0000101002015460C4604903246694604A802
:1008C000FFF7D4FF03460498211825B108B10A4662
:1008D00000E022462A6000280DD0002B02DD00989F
:1008E000884208D0081B0094CDE9010432466946CD
:1008F00004A8FFF7BBFF06B070BD00002D0800087C
:100900004B080008A10C00082DE9F04791460F465E
:1009100080460446002614F8015B2DB100F0BCF9B6
:100920000068405DC007F6D12B2D02D02D2D18D0C8
:10093000641E4A463946204600F0BBF927B13968A3
:10094000A14201D1C7F8008071054FF002040BD518
:100950004042002803DD04F0D7FF0460A007BDE893
:10096000F08746F48066E4E70028F8DA04F0CCFF6C
:1009700004606FF00040F2E710B5141E73F100043C
:1009800008DA401C41F1000192185B411A4301D181
:1009900020F0010010BD2DE9F04D92469B4611B1AB
:1009A000B1FA81F202E0B0FA80F220329046FFF70D
:1009B0001CFF04460F4640EA0A0041EA0B01534679
:1009C0005A46084313D0114653EA010019D0C8F122
:1009D00040025046FFF7A6FB05460E4650465946D4
:1009E0004246FFF702FF084305D0012004E02046FD
:1009F0003946BDE8F08D0020054346EAE0762C43F9
:100A000037430A986305E40AA0EB08000022FD0AB8
:100A100044EA47540A3002D500200146E9E70105BF
:100A200010196941DDE9084500196941BDE8F04D3B
:100A3000A2E72DE9FE4F81EA030404F0004421F00F
:100A4000004100944FF0000B23F0004350EA0104F2
:100A50005ED052EA03045BD0C3F30A54C1F30A55D3
:100A60002C44A4F2F3340194A0FB0254C1F313010B
:100A700041F48011C3F3130343F4801301FB0244D8
:100A800000FB034E840A970A44EA815447EA8357DD
:100A9000A4FB076802958D0A05FB07854FEA932C96
:100AA00004FB0C542705029D4FEA065847EA163707
:100AB000B5EB08056EEB070C870E920E47EA81171F
:100AC00042EA8312A7FB0201B6EB0B0164EB0004C0
:100AD0002B0D43EA0C335E1844EB1C50DA465146AA
:100AE000E7FB0201C5F313044FEA0B3343EA145347
:100AF0004FEA0432019C43EA0603A4F10C04029479
:100B0000009CCDE900B4FFF746FF03B0BDE8F08FCD
:100B100000200146F9E72DE9F04D81EA030404F0D5
:100B2000004B21F0004514464FF0000A23F000412D
:100B300050EA050220D054EA01021DD0C5F30A573D
:100B40000246C5F31303C1F31300C1F30A5640F480
:100B5000801543F48013A7EB0608101BD64608F255
:100B6000FD3873EB050002D308F1010801E092188B
:100B70005B41B8F1000F03DA00200146BDE8F08DBB
:100B800000204FF48011064684460EE0171B73EBDD
:100B9000050705D3121B63EB050306434CEA010C62
:100BA00049084FEA300092185B4150EA0107EDD145
:100BB00052EA030012D082EA040083EA05010843E6
:100BC00005D0101BAB4106D20122002306E0002213
:100BD0004FF0004302E06FF0010253101AEB0600E1
:100BE0004CEB085110EB0A0041EB0B01BDE8F04D56
:100BF000FFF7C2BE0EB540F2334202920022CDE9A9
:100C000000221346FFF7C7FE03B000BDC1F30A522E
:100C1000C1F3130140F2FF3341F480119A4202DA2A
:100C200000200146704740F233439A42A2F2334219
:100C300002DC5242FFF776BAFFF7D7BD01F000435E
:100C400030B421F0004150EA010206D00A0DA2F5AD
:100C50006072C1F31301002A02DC30BC002070472F
:100C6000440F44EAC104C100E01830BC00EBC2509C
:100C700000F06EB8064C074D06E0E06840F0010356
:100C800094E8070098471034AC42F6D3FFF732FAE5
:100C9000386F0008586F000800487047346F00082C
:100CA00010B50446FFF7F8FF0068005D00F0010092
:100CB00010BD2DE9F05F82460078002715468B466F
:100CC0000AF10104B946302801D09DB113E014F8AF
:100CD000010B0127782803D0582801D045B10AE03C
:100CE0000DB1102D07D10027102514F8010B02E0DB
:100CF000082500E00A250026B0460EE005FB0800A6
:100D000005FB06F1012701EB10461FFA80F8B6F546
:100D1000803F00D3B94614F8010B294600F04FF884
:100D20000028EBDABBF1000F05D00FB1641E00E024
:100D30005446CBF80040B9F1000F06D004F0E4FDB2
:100D400002210160C81EBDE8F09F48EA0640FAE7AC
:100D50000029A8BF7047401C490008BF20F00100CF
:100D6000704710B4B0FA80FC00FA0CF050EA0104AD
:100D700004BF10BC704749B1CCF1200421FA04F43F
:100D800011FA0CF118BF012121430843A3EB0C0118
:100D9000CB1D4FEA00614FEA102042BF002010BC7B
:100DA000704700EBC35010440029A4BF10BC70472B
:100DB000401C490008BF20F0010010BC70473A28D1
:100DC00000D2303820F02002412A01D3A2F13700AE
:100DD000884201D34FF0FF307047000070B50446E1
:100DE00000688168C943C90717D1816821F00101F2
:100DF000816001F0D5FB05460AE000BF01F0D0FBA1
:100E0000401B022804D920688068C043C00706D070
:100E100020688068C043C007F0D0002070BDA06A81
:100E200040F01000A062E06A40F00100E0620120A2
:100E300070BD0000F8B50026044600960068816881
:100E4000C943C9072DD0816841F00101816016486E
:100E500016490068B0FBF1F000E0401E0090002849
:100E6000FBD101F09DFB054616E000BF01F098FBA9
:100E7000401B022810D920688068C043C0070BD0EF
:100E8000A06A40F01000A062E06A40F00100E06259
:100E900084F824600120F8BD20688068C043C00742
:100EA000E4D10020F8BD00000801002040420F00FE
:100EB0007047000070B51DA004F0F2FC1F4C002527
:100EC00004F16806A068401CA06002280FD11CA095
:100ED00004F0E6FC0220E0650120A07000203554FB
:100EE000401CC0B20528FAD301F05AFB2066A06866
:100EF00005280ED1E06518A004F0D2FC002035547E
:100F0000401CC0B20528FAD30220A07001F048FBB3
:100F10002066A0680A2807D1E06513A004F0C0FC91
:100F200003F068FD0420A07070BD00004E757420B1
:100F30006463206E68616E200A0D00001C000020B2
:100F4000204D6F6465205468656D20746865206D60
:100F50006F69200A0D0000004D6F646520586F61B5
:100F600020746865200A0D00204D6F64652052458D
:100F700053455420746865200A0D00007047000036
:100F800070B50E4C00250420A1784FF47A76012923
:100F900001D0022911D1A07009A004F081FCE570F4
:100FA0000120E065802005F007FB09A005F044FB67
:100FB0003046BDE8704001F03FB970BD1C00002014
:100FC0004D6F64652045584954200A0D000000000B
:100FD00045584954494E472E2E2E2E2E0000000013
:100FE0007047000010B50DA004F05AFC0E4C002014
:100FF000A060A078012802D10CA004F051FCA078D8
:10100000022802D10FA004F04BFCA078042804D1E0
:10101000BDE810400FA004F043BC10BD4E75742015
:101020007468610A0D0000001C0000204D6F6465AB
:10103000207468656D20746865206D6F69200A0DE5
:10104000000000004D6F646520786F612074686552
:10105000200A0D004D6F64652045786974200A0DE3
:1010600000000000FEE770B50446818A006901F0C7
:101070008DFAE17DC1F38002824207D041F0080180
:1010800060F38201E17501F08BFA2060E07D4FF49E
:101090007A75000730D501F083FA2168401A0F28CD
:1010A0002AD3E07D810861F3000000F00101C0F364
:1010B0004002E07591421BD0C1074ED001F070FA9A
:1010C0006168401AA84202D82046FFF757FFE07D2A
:1010D00020F01000E0752046FFF782FF0020A07589
:1010E00001F05EFAE060E07D014660F34101E175E8
:1010F000E07D20F00800E075E07DC0060ED501F02F
:101100004FFA6168401A40F6B831884206D320464B
:10111000FFF7CEFEE07D20F01000E075A07D70B1FD
:1011200001F03EFAA168401AA84205D32046FFF715
:10113000C1FE01F035FAA060A07D00280CD101F0BD
:101140002FFAE168401AB0F5FA6F05D32046FFF791
:1011500049FF01F025FAE06070BD40F01000E07535
:101160000120A07501F01CFA6060A0602046FFF726
:1011700007FFB8E710B5C37D23F008040023036020
:1011800024F01004436044F00703C37501618282B8
:1011900010BD0000F0B4114AD46D002C1BD0136DAB
:1011A00015465B1C1365566DAD6D0D484FF480718F
:1011B0003544B34202D24FF0010203E005D99D420B
:1011C00003D90022F0BC01F0E6B99D4203D2641EAF
:1011D0000020D4651065F0BC704700001C000020A2
:1011E000000C014010B500F05FF8012801D000F0BC
:1011F0005BF8BDE810400A2001F01EB810B52820A9
:1012000004F042F84FF48071034801F0BFF908B1CF
:10121000002010BD012010BD000801401FB50A4B81
:101220004FF48072012120B100200092CDE901012C
:1012300004E00320CDE90021CDE9021069461846FB
:1012400001F0B4F81FBD00000008014070B50D4D5D
:101250004FF480742146284601F098F90028F9D00F
:10126000282004F011F82146284601F08FF90028C3
:1012700006D02146284601F089F90028F9D101203D
:1012800070BD00000008014070B5002425466006CE
:10129000040EFFF7DBFF08B144F001046D1CEDB252
:1012A000082DF4D3204670BD3EB500200190029079
:1012B00000F05AF8FFF7A2FF002836D01C4D4FF47B
:1012C00080742146284601F061F90028F9D02146B2
:1012D000284601F05BF90028F9D100240DF104053E
:1012E000FFF7D2FF2855641CE4B2052CF8D39DF813
:1012F00004109DF805209DF806309DF807008C1815
:101300001D182C449DF80850AC420CD1009009A047
:1013100004F0C6FA13489DF8061001609DF8041009
:10132000416001203EBD00203EBD02203EBD0000C8
:101330000008014048756D6964697479EFBC9A25AD
:10134000642E256425255248202D2054656D706536
:10135000726174757265EFBC9A25642E2564C2B003
:10136000430A00000000002010B50020FFF756FFE0
:1013700000224FF48071054801F00DF9142000F0AF
:101380005BFFBDE810400120FFF748BF00080140A7
:10139000704700002DE9F04186B0012421461D4828
:1013A00002F0B2FD50BB1C4904EB8400002501EBA8
:1013B0004008601E00EB80077E19B0B2FF2100F0EC
:1013C000DDFB08EB4501B0B20A3900F075FB6D1C7E
:1013D000EDB2052DF0D3214610A004F061FA802073
:1013E00005F0EAF814216846FEF7CBFE224613A169
:1013F000684604F065FA684605F01EF9641CE4B21C
:10140000062CCBD301F0CCF803496E39086606B040
:10141000BDE8F081200100208A000020546865208A
:1014200064756F6320786F61206C6120746865203B
:10143000736F203A202564200D0A0000494420786B
:101440006F61206C612025642000000010B5074CFE
:1014500001202063207003F045FD01F0A1F86064D5
:10146000BDE8104002A004F01BBA00001C000020E0
:101470004A534F4E206461207875206463205345A1
:1014800052564F0070B50E4C0E4E4FF40045206979
:1014900060B1012809D10CA004F002FA012229460A
:1014A000304601F078F80020206170BD09A004F0FA
:1014B000F7F900222946304601F06DF80120F3E7E4
:1014C0001C0000200010014044454E2031204F46B2
:1014D000460A000044454E2031204F4E0A000000CD
:1014E00070B50E4C0E4E4FF48045606960B1012816
:1014F00009D10CA004F0D4F901222946304601F0AC
:101500004AF80020606170BD09A004F0C9F900220A
:101510002946304601F03FF80120F3E71C00002087
:101520000010014044454E2032204F46460A00003C
:1015300044454E2032204F4E0A00000070B50E4C3C
:101540000E4E4FF40055A06960B1012809D10CA0DE
:1015500004F0A6F901222946304601F01CF80020CB
:10156000A06170BD09A004F09BF900222946304615
:1015700001F011F80120F3E71C00002000100140E9
:1015800044454E2033204F46460A000044454E2035
:1015900033204F4E0A00000070B50E4C0E4E4FF433
:1015A0000075E06960B1012809D10CA004F078F958
:1015B00001222946304600F0EEFF0020E06170BDB8
:1015C00009A004F06DF900222946304600F0E3FF3F
:1015D0000120F3E71C000020000C014044454E2090
:1015E00034204F46460A000044454E2034204F4EDA
:1015F0000A00000070B50D4C0D4D216A61B1012942
:1016000009D10CA004F04CF901221146284600F043
:10161000C2FF0020206270BD09A004F041F9002241
:101620000121284600F0B7FF0120F3E71C0000204D
:10163000000C0140515541542031204F46460A00CC
:10164000515541542031204F4E0A000070B50D4CC9
:101650000D4D616A61B1012909D10CA004F020F996
:1016600001220221284600F096FF0020606270BD32
:1016700009A004F015F900220221284600F08BFF92
:101680000120F3E71C000020000C0140515541549B
:101690002032204F46460A00515541542032204FF7
:1016A0004E0A000070B50E4C0E4E4FF48065A06AD5
:1016B00060B1012809D10CA004F0F2F801222946FA
:1016C000304600F068FF0020A06270BD09A004F061
:1016D000E7F800222946304600F05DFF0120F3E7DD
:1016E0001C000020000C0140515541542033204F74
:1016F00046460A00515541542033204F4E0A0000FF
:1017000070B505462348164690B082780C46012AEB
:1017100031D0022A4FF0800037D004F04DFF1EA0D8
:1017200004F08AFFC02004F047FF14216846FEF74A
:1017300028FD2A461BA1684604F0C2F8684604F05A
:101740007BFF142105A8FEF71CFD224617A105A862
:1017500004F0B6F805A804F06FFF14210AA8FEF7FC
:1017600010FD324613A10AA804F0AAF80AA804F052
:1017700063FF10B070BD802004F01EFF0FA004F0C6
:101780005BFF892004F018FFCCE704F015FF0FA0E1
:10179000C6E700001C000020534D41525420484F22
:1017A0004D4500004E3A25640000000020443A25D3
:1017B0006400000020473A25640000004D4F444576
:1017C0002047484920544845000000004D4F4445FB
:1017D00020584F4120544845000000000C490A8819
:1017E0000C49098860B1012810D14EF6EE6009B1AC
:1017F0001AB107E0824209D006E0814204D005E038
:1018000022B109B1AB20704701207047002070471A
:1018100000F8010800FC010810B586B0134C002048
:101820000121CDE9024104900090204600F094F996
:1018300028B904A9684600F011FD002813D1002240
:1018400013462146012000F05DFD00280BD1084819
:10185000029000F081F928B904A9684600F0FEFC66
:10186000002800D1002006B010BD000000F80108DB
:1018700000FC01082DE9F04F85B000245C4E049473
:10188000671E3188A0465B4D28884FF00109CDE9DD
:1018900002693A0C584B009400296FD0A1F6EE6112
:1018A000B1F5604122D001F6EF61B1F5005F1AD1C8
:1018B00040B1A0F56E41EE3915D1304600F04CF93B
:1018C00038B10CE030468DE004A9684600F0C6FC53
:1018D0004DE004A9684600F0C1FC00284AD100226E
:1018E0001346294640E0FFF797FF40E038B19042A9
:1018F000F9D12846029500F02FF960B331E0DFF806
:10190000F0B09A460BF1060BBBF800103AF8142021
:10191000914200D127B2BC420DD03849104600F0A8
:10192000CBF8012807D035493AF81400098800F0AF
:10193000E7F800281ED1641CA4B2022CE4D30022D4
:1019400013463146012000F0DDFC002812D1284664
:10195000CDF8008044E004A9684600F07FFC002830
:1019600008D1002213463146012000F0CBFC0028AC
:1019700000D1002005B0BDE8F08FFFE70028B2D00D
:10198000904202D1284602952CE0DFF868B09A46D2
:101990000BF1060BBBF800103AF81420914200D16D
:1019A00027B2BC420DD01549104600F085F8012839
:1019B00007D012493AF81400098800F0A1F800286D
:1019C000D8D1641CA4B2022CE4D3002213462946C9
:1019D000012000F097FC0028CCD13046CDF80080E3
:1019E000CDE9020900F0B8F800283FF46DAFC0E778
:1019F00000F8010800FC0108BC0000200C010020D8
:101A00002DE9F047002586B0274C07468846264634
:101A1000A94628460495FFF7E1FE0146234801291F
:101A200004D029B1AB2006B0BDE8F087044600E041
:101A300006464EF6EE6200233146012000F062FCBD
:101A40000028F0D14146384600F05AF80028EAD183
:101A5000DFF85C80DFF85CA038F81520BA420DD0C2
:101A60001449104600F028F8012807D038F815006E
:101A7000BAF8001000F044F80028D4D16D1CADB2C3
:101A8000022DE9D30120CDE9024004A9CDF8009050
:101A9000684600F0E3FB0028C5D10022134631461A
:101AA000012000F02FFCBEE700F8010800FC01084F
:101AB000BC0000200C0100202DE9F04106460D4637
:101AC00001240D4F0020FFF789FEAB2812D00B4AEE
:101AD00007EB802102EB8022891C08E01088B042CD
:101AE00004D132F8020C2880002402E0121F8A423E
:101AF000F4D82046BDE8F08100F80108FEFB01089B
:101B000070B506460D46124C0120FFF767FEAB2864
:101B10000CD0104904EB802401EB802003E0216805
:101B2000491C04D0241D8442F9D3802070BD2A466C
:101B300000232146012000F0E5FB0028F6D1A11C7E
:101B40003246BDE870400023012000F0DBBB0000FE
:101B500000F80108FFFB010810B501214FF6FF74E2
:101B6000054B05E00288A24201D0002102E0001DE1
:101B70009842F7D9084610BDFFFB010870B50C4626
:101B80000546FFF7BDFF802805D121462846BDE860
:101B90007040FFF735BF70BD704700000649002058
:101BA000C8610648016941F004010161016941F021
:101BB0004001016170470000F80E00200020024043
:101BC000064A0021D16106490A6942F002020A610F
:101BD0004861086940F0400008617047F80E002035
:101BE00000200240044B0022DA61044A136943F0EA
:101BF0000103136101807047F80E002000200240AD
:101C000014480022C168CB06134904D5CA6942F0C2
:101C10000202CA611022C3685B0705D5CB6943F095
:101C20000103CB6142F00402C369DB0707D0CB6933
:101C300043F00403CB61C16921F00101C161A2F548
:101C40008071013901D0C2607047C16921F0010182
:101C5000C161704700200240F80E002070B50546B3
:101C600000F09EFC0646114C09E0681C07D025B127
:101C700000F096FC801BA84201D9032070BDE068EB
:101C8000C007F2D1E068800601D52020E060E0685E
:101C9000C00605D4E069C00702D1E068400703D55B
:101CA000FFF7AEFF012070BD002070BD0020024094
:101CB000F8B50024009490F824202546012A12D07B
:101CC000012280F824204A681F23072A0DD20668C3
:101CD000776B521E02EB820293409F430B68934046
:101CE0001F43776319E00220F8BD06680D2A0AD267
:101CF000376BD21F02EB820293409F430B689340E5
:101D00001F43376309E0F76A0D3A02EB8202934002
:101D10009F430B6893401F43F7620A6807230668D6
:101D20000A2A0AD3F7680A3A02EB420293409F4319
:101D30008B6893401F43F76008E0376902EB42026B
:101D400093409F438B6893401F4337610A68102A72
:101D500001D0112A20D1124B02689A4217D1936800
:101D60001B0219D4936843F4000393600968102997
:101D700012D10C490C4A0968B1FBF2F101EB810167
:101D8000490000E0491E00910029FBD104E0816A6E
:101D900041F020018162012480F824502046F8BDE2
:101DA000002401400801002040420F000068C06C80
:101DB000704700002DE9F0414FF0000704003D4658
:101DC0007ED0A06A002628B9E66284F82460204606
:101DD00000F07EF82046FFF701F8A16A01F010013B
:101DE000014304D0A06A40F01000A06268E0A16A3C
:101DF00021F4885141F00201A1626268E169237B0C
:101E00000A4347EA43010A43A1684FF48077B94285
:101E100008D0012906D0002194F814C0BCF1010FAC
:101E200002D00AE03946F7E7F3B1A36A43F0200392
:101E3000A362E36A43F00103E3622368D3F804C0BA
:101E40002CF4694C4CEA010CC3F804C0236899686F
:101E5000DFF870C001EA0C0111439960A168B94232
:101E60000BD0012909D00CE0DFF85CC0A3690CEBB2
:101E700043330B4343F40061DFE7218A0D05A5F5E9
:101E800080152168CB6A23F470032B43CB62216851
:101E900089680E4B1940914208D1E662A16A21F08F
:101EA000020141F00101A162BDE8F081A06A20F0C9
:101EB000020040F01000A062E06A40F00100E06221
:101EC0000120F1E7FDF7E1FF00E0FFFFFE0E1FFF3D
:101ED00000B585B000210091019102910391006845
:101EE0000E49884218D10E48816941F40071816120
:101EF000816901F400710491816941F004018161FB
:101F00008069694600F004000490012000900320DD
:101F10000190044800F04AFA05B000BD00240140D9
:101F200000100240000801402DE9F84300270D464B
:101F30000446009700F034FB804620688168C9059C
:101F400008D5A06A40F02000A06284F82470012027
:101F5000BDE8F8834168C90503D4C06A10F4700F66
:101F60002AD0022000F042FD3B490968B1FBF0F69F
:101F70002068036939490B424FEA61014FEAA11217
:101F80001FD1C3684FEA611C13EA0C0F19D1036912
:101F90000B4225D1C068104222D1142023E0681CD6
:101FA0000AD02DB100F0FCFAA0EB0800A84203D93A
:101FB00020680068800725D5206800688007EED576
:101FC0002DE003690B4202D1C168114206D00269BB
:101FD00023490A4206D1C068084203D1542002E0D6
:101FE000292000E0FC204643009816E0681C11D030
:101FF0002DB100F0D5FAA0EB0800A8420AD900984C
:10200000B04207D2A06A40F00400A06284F82470B5
:1020100003209DE70098401C0090B042E6D3216861
:102020006FF012000860A06A40F40070A06220689F
:102030008068C0F3424007280CD1207B50B9A06AC9
:1020400020F48070A062A06AC00403D4A06A40F0AB
:102050000100A06200207BE70801002024499224AF
:102060004992240070B5044690F8240001280DD050
:10207000012084F824002046FEF7DCFE02004FF029
:10208000000005D084F82400104670BD022070BD09
:10209000A16A40F20123994341F48071A1621F4D6E
:1020A00023681F49AB4218D10E6816F4702F14D064
:1020B000A66A46F48016A6620E68760505D5A66A5D
:1020C00026F4005646F48056A662A66AF6040AD59F
:1020D000E66A26F00606E66206E0A66A26F48016A0
:1020E000A6625E68E9E7E06284F824006FF002000F
:1020F000186020688368C3F34243072B05D1A842C8
:1021000008D1096811F4702F04D0816841F480115E
:102110008160B9E7816841F4A001F9E70028014036
:102120000424014010B5044690F82400012807D08B
:10213000012084F824002046FEF750FE10B107E08D
:10214000022010BDA16A21F4885141F00101A16271
:10215000002184F8241010BD10B590F82110002241
:10216000022905D00421816380F82020012010BDC0
:1021700001680B6823F00E030B6001680B6823F005
:1021800001030B6090F84030C46B012101FA03F3A6
:10219000636080F8211080F82020104610BD0000F8
:1021A00010B590F821100024022903D00421816386
:1021B00001243DE001680A6822F00E020A6001680D
:1021C0000A6822F001020A601A4A0168914201D1AC
:1021D000012121E0174A1432914201D110211BE064
:1021E000144A2832914201D1891515E0114A3C3236
:1021F000914201D189140FE00E4A5032914202D12E
:102200004FF4803108E00B4A6432914202D14FF41E
:10221000801101E04FF08071064A083A51600121B7
:1022200080F82110002180F82010416B01B188470F
:10223000204610BD0800024070B5044600F0B0F919
:102240000546601C02D004480078044400F0A8F958
:10225000401BA042FAD370BDFC0000202DE9F047DE
:10226000054626480F460126017E01290FD001218F
:10227000814601762868DFF888804CF250340228C5
:1022800008D0A2462046FFF7E9FCA8B131E00220C1
:10229000BDE8F0872046FFF7E1FC08BB0120FFF70F
:1022A0007DFC2046FFF7DAFCD8F81010064621F036
:1022B0000401C8F810101CE04FF0FF303860AC6823
:1022C00011E02046FFF77CFC5046FFF7C7FCD8F82A
:1022D0001010060021F00201C8F8101001D03C6077
:1022E00007E004F58064D5E9020100EB8120A042FB
:1022F000E7D8002189F818103046C9E7F80E002009
:10230000002002402DE9F05F07461C488846002463
:10231000017E15461E46012909D00121814601761C
:102320004CF2503A5046FFF799FC18B122E00220D7
:10233000BDE8F09F012F02D0022F00D00427D34622
:10234000DFF83CA0220128463146FDF7EBFE81B2C2
:1023500008EB4400FFF746FC5846FFF77FFCDAF82D
:10236000102022F00102CAF8102018B9641CE4B24F
:10237000BC42E7D3002289F81820D9E7F80E0020E4
:1023800000200240064900200A69120607D5054AC6
:102390004A60054A4A600969090600D5012070476C
:1023A0000020024023016745AB89EFCD2DE9F84FAE
:1023B000DFF8B891002409F1040A0AF1040B23465E
:1023C0000F270BF1040EC9E00125A5402A40AA42BF
:1023D0007DD1674ED1F804C0ACEB0608B44532D0CD
:1023E00014DCBCF1030F3AD009DCBCF1000F2AD099
:1023F000BCF1010F1CD0BCF1020F31D11DE0BCF1CA
:10240000110F17D0BCF1120F2AD119E0B8F5881FAF
:1024100019D006DCB8F5803F15D0B8F5801F1FD164
:1024200011E0B8F5001F0ED0B8F5041F18D10AE06E
:10243000CB6815E0CB681B1D12E0CB6808330FE0BA
:10244000CB680C330CE08B682BB1012B4FF00803E9
:1024500003D0456104E0042302E0056100E00023AD
:10246000FF2A01D8064601E000F104064FEA840580
:1024700001D9A5F12005D6F8008007FA05FC28EA65
:102480000C0803FA05F548EA0508C6F800804D680F
:10249000ED0062D5374DAE6946F00106AE61AD691B
:1024A00024F0030605F001050095334D06EB050CFD
:1024B000DCF80850A607360F07FA06F825EA0805E3
:1024C000DFF8B880404503D14FF0000817E044E042
:1024D000DFF8AC80404502D14FF001080FE0DFF893
:1024E000A480404502D14FF0020808E0DFF8988050
:1024F000404502D14FF0030801E04FF0040808FA0C
:1025000006F848EA0508CCF808804D68D9F800605C
:10251000ED034D4601D5164300E096432E604D680D
:10252000DAF80060AD03554601D5164300E0964346
:102530002E604D68DBF80060ED025D4601D5164364
:1025400000E096432E604D68DEF80060AD027546EF
:1025500001D5164300E096432E60641C0D682A46A0
:10256000E5407FF431AFBDE8F88F00000004014082
:10257000000011100010024000000140000801405E
:10258000000C014000100140001401408068084028
:1025900000D0012070470AB1016170470904FBE7D0
:1025A0000148806870470000FC00002070B50400FE
:1025B00025D094F83D00002520B984F83C502046F1
:1025C00000F04EF9242084F83D002068016821F0D5
:1025D000010101602068016841F400410160206848
:1025E000016821F40041016000F070FB4D4A616810
:1025F000914201D84C4900E04C49884201D2012067
:1026000070BD4B492368B0FBF1F15E6826F03F06D0
:102610000E435E606368934206D94FF49673594344
:102620004FF47A73B1FBF3F12368491C1E6A26F05C
:102630003F06314319626168914210D84900401E3B
:10264000B0FBF1F2521CC2F30B02042A01D20420A7
:1026500022E0B0FBF1F0401CC0F30B001CE0A268CC
:10266000F2B301EBC10303EB0116431EB3FBF6F318
:102670005B1C43F480431B0549D092B301EBC102BC
:1026800002EB0111401EB0FBF1F0401CC0F30B0047
:1026900040F4804040F400402168CA694CF6FF7362
:1026A0009A431043C861D4E90710014320680268C7
:1026B00022F0C00211430160D4E903010143206804
:1026C000826848F2FF339A4311438160D4E90501DF
:1026D00008432168CA6822F0FF021043C86001E085
:1026E0000EE016E02068016841F0010101602564F8
:1026F000202084F83D00256384F83E50002070BD02
:1027000001EB4106431EB3FBF6F35B1CB3E701206C
:10271000C2E701EB4101401EB0FBF1F0401CC0F3E9
:102720000B00B7E7A086010080841E0000093D0071
:1027300040420F002DE9F84F1F4690468A46044656
:10274000DDF82890FFF72CFF054694F83D0020287F
:102750007FD11923012240492046009501F0F4FA67
:10276000002876D194F83C00012872D0012084F82A
:102770003C0020680168C90703D1016841F00101EC
:1027800001602068016821F400610160212084F863
:102790003D00102084F83E0000262664C4F8248002
:1027A0006785608D20852D48E0622B464A4651465C
:1027B000204601F055FA90B920684169806900907F
:1027C00036E02A464946204601F03DFB50B1206CD8
:1027D000042804D12068016841F4007101600120DF
:1027E000BDE8F88F606A216800780861606A401C63
:1027F0006062618D491E6185218D491E89B22185E6
:1028000022685369DB435B070BD451B10078106138
:10281000606A401C6062608D401E6085208D401E95
:1028200020852A464946204601F068FA0028CED184
:10283000208D0028C5D154F83D0B016841F400718A
:102840000160202004F81E09E67766770020C7E7BC
:10285000FFE70220C4E70000020010000000FFFFB5
:1028600010B586B00021009101910291039100689A
:102870000F4988421AD10F4CA06940F00800A061AE
:10288000A069694600F008000490C0200090122062
:102890000190032003900848FFF788FDE06940F4A9
:1028A0000010E061E06900F40010049006B010BD73
:1028B0000054004000100240000C014002488168B2
:1028C0000278114481607047FC000020074810B571
:1028D000016841F010010160032000F075F800204C
:1028E00000F006F800F024F8002010BD002002409F
:1028F00070B50D4D04464FF47A712878B1FBF0F0B5
:102900000A490968B1FBF0F000F049FD48B9102C04
:1029100007D200222146501E00F036F800206C60DD
:1029200070BD012070BD0000FC00002008010020E7
:102930000C4808B5816941F001018161816901F0AC
:1029400001010091C16941F08051C161C06900F08D
:10295000805000900448416821F0E06141F000712E
:10296000416008BD0010024000000140002809DB62
:1029700000F01F02012191404009800000F1E02099
:10298000C0F8001170470000F0B40E4B1B680C46F5
:10299000C3F30223C3F10705042D00D90425191D33
:1029A000072901D2002300E0DB1E012606FA05F10B
:1029B000491E214099409E40761E16403143F0BC8E
:1029C00002F092BF0CED00E0064900F00702086833
:1029D0004FF6FF03184040EA0220034A1043086004
:1029E000704700000CED00E00000FA0510B529A4C6
:1029F00001461DCC86B08DE81D002AA02A4C006837
:102A000004900020012923D002293AD010291DD199
:102A100061682268D20119D5C1F38342C9031DF848
:102A2000020009D5616804AAC1F34041515C1F4A04
:102A3000B2FBF1F1484301E01D4948436168490296
:102A400004D440005FF00301B0FBF1F006B010BD0C
:102A5000226AC2F30121012903D1920701D5C803DB
:102A6000F4E7022905D1626A920702D549F640408F
:102A7000ECE70329EAD121688903E7D54FF2244026
:102A8000E4E700F033F96168C1F38131491C490082
:102A9000DAE7000002030405060708090A0B0C0D1B
:102AA0000E0F1010010200000010024000127A0008
:102AB00000093D002DE9F84305460078354CC00774
:102AC00054D0E0690026C00008D4E06940F080508E
:102AD000E061E069012600F0805000902E48016816
:102AE000C90512D40168804641F480710160FFF786
:102AF00057FD074605E000BFFFF752FDC01B6428E5
:102B000023D8D8F80000C005F6D5206A10F440702C
:102B100021D0A98801F4407181421CD0206A1F494C
:102B2000012220F440700A6000220A602062C0077F
:102B300011D0FFF735FD074641F2883808E000BFA5
:102B4000FFF72EFDC11B414502D90320BDE8F883E4
:102B5000206A8007F4D5206A696820F44070084331
:102B600020621EB1E06920F08050E0612878800783
:102B700005D56068A96820F4404008436060287863
:102B8000C00605D56068E96820F4800008436060ED
:102B90000020DBE700100240007000404004424289
:102BA0002DE9F0470F46050061D0434E306800F034
:102BB0000700B84209D2306820F00700384330607F
:102BC000306800F00700B84251D128683B4C8107BB
:102BD00012D5400703D5606840F4E0606060287853
:102BE000000703D5606840F4605060606068A968C1
:102BF00020F0F000084360602878C00728D068689B
:102C0000012810D02168022810D0890700292EDA67
:102C1000616821F0030101436160FFF7C1FC804658
:102C200041F288390DE021688903EFE78901EDE77A
:102C3000FFF7B6FCA0EB0801494502D90320BDE827
:102C4000F0876068696800F00C00B0EB810FEFD18D
:102C5000306800F00700B8420BD9306820F0070058
:102C600038433060306800F00700B84201D00120DE
:102C7000E5E72878400705D56068E96820F4E0605A
:102C8000084360602878000706D56068296920F449
:102C9000605040EAC100606000F038F86168084A9E
:102CA000C1F30311515CC84006490860064800683A
:102CB000FFF71EFE0020C2E7002002400010024085
:102CC0009A6E000808010020000100200448054910
:102CD00000684968044AC1F30221515CC84070474A
:102CE0000801002000100240AA6E000804480549AF
:102CF00000684968044AC1F3C221515CC84070476A
:102D00000801002000100240AA6E000812A185B040
:102D10000FC98DE80F0014A0144A00680490516890
:102D2000134801F00C03042B10D0082B0ED1C1F373
:102D30008343C9031DF803000AD5516804AAC1F3EF
:102D40004041515C0A4A5043B0FBF1F005B0704776
:102D500008494843FAE7000002030405060708098A
:102D60000A0B0C0D0E0F10100102000000100240A3
:102D700000127A0000093D002DE9F84F040070D0E0
:102D80002078C04DC00749D06868C0F38100012891
:102D900007D06868C0F38100022809D16868C003C1
:102DA00006D52868800339D560680028E7D035E06B
:102DB0006068B0F5803F0BD010B1B0F5A02F11D0F6
:102DC000286820F480302860286820F4802002E001
:102DD000286840F480302860606890B1FFF7E0FB1D
:102DE00006460AE0286840F480202860F0E700BF2B
:102DF000FFF7D6FB801B642873D828688003F7D5BB
:102E00000CE0FFF7CDFB064605E000BFFFF7C8FB6F
:102E1000801B6428F0D828688003F7D420789A4E65
:102E200080074FF001094FF0000839D5686810F0AD
:102E30000C0F07D06868C0F38100022809D16868C8
:102E4000C00306D42868800714D52069012808D15A
:102E500010E02069B0B1C6F80090FFF7A1FB07466B
:102E600005E00AE1FFF79CFBC01B0228C4D82868D4
:102E70008007F7D52868616920F0F80040EAC100B2
:102E800028600DE0C6F80080FFF78AFB074604E0E3
:102E9000FFF786FBC01B022823D828688007F7D4D9
:102EA000207800072CD57948A169D9B1C0F80090E5
:102EB000FFF776FB074604E0FFF772FBC01B022812
:102EC0000FD8686A8007F7D571484FF4FA51006847
:102ED000B0FBF1F0009000BF0098411E0091FAD2C3
:102EE0000EE080E0C0F80080FFF75AFB074604E0E0
:102EF000FFF756FBC01B022875D8686A8007F7D415
:102F00002078400760D5E8690027C00008D4E86948
:102F100040F08050E861E869012700F0805000909F
:102F20005C480168C90513D40168834641F4807187
:102F30000160FFF735FB824606E000BFFFF730FB7C
:102F4000A0EB0A0064284ED8DBF80000C005F5D5D8
:102F5000E06801280AD008B1052813D0286A20F0BB
:102F600001002862286A20F0040002E0286A40F08C
:102F700001002862E06841F2883B98B1FFF710FB3E
:102F800082460BE0286A40F004002862EEE700BFAA
:102F9000FFF706FBA0EB0A0159455AD8286A8007BB
:102FA000F6D50CE0FFF7FCFA824605E0FFF7F8FAE9
:102FB000A0EB0A0159454CD8286A8007F6D41FB106
:102FC000E86920F08050E861E06988B36968C1F37E
:102FD0008101022944D00228C6F8608004D0FFF79E
:102FE000DFFA044638E034E0FFF7DAFA074604E097
:102FF000FFF7D6FAC01B02282BD828688001F7D427
:10300000206AB0F5803F05D16868A16820F40030DF
:1030100008436860D4E908010843696821F4741121
:1030200008436860C6F86090FFF7BAFA044606E005
:1030300025E000BFFFF7B4FA001B022809D8286872
:103040008001F7D51BE000BFFFF7AAFA001B02289A
:1030500002D90320BDE8F88F28688001F4D40EE07F
:103060000128F7D06868226A00F48031914204D1C7
:10307000616A00F47010884201D00120EAE7002064
:10308000E8E7000000100240000042428004424293
:10309000080100200070004070B5040009D0606A8B
:1030A000002540B125616561A56294F8510040B1E9
:1030B0000CE0012070BD6068B0F5827FF4D0E5615E
:1030C000F2E784F85050204600F040F8022084F8DF
:1030D00051002068016821F040010160A088218929
:1030E00000F4827001F404410843A18901F40061F5
:1030F0000843217C01F002010843217D01F0010118
:103100000843218B01F400710843217F01F038014D
:10311000084394F8201001F080010843218D01F448
:103120000051084321680860A069042101EA1040A9
:10313000216848602068C16921F40061C16165654A
:10314000012084F85100002070BD000030B585B02A
:103150000024009401940294039400681449884266
:1031600023D11448816941F480518161816901F45E
:1031700080510491816941F00401816180690E4DA3
:1031800000F004000490A020009002200190032091
:10319000039069462846FFF709F94020CDE900046D
:1031A000694628460294FFF701F905B030BD0000DA
:1031B0000030014000100240000801402DE9F84FA6
:1031C000044690F8500000270A9E1D4692468B4602
:1031D0004FF0010901280ED0012084F85000FFF7BC
:1031E000DFF9804694F85100616801280CD0B1F5F0
:1031F000827F07D102E00220BDE8F88FA16809B9FB
:10320000042801D00227C2E0BBF1000F27D0BAF199
:10321000000F24D01DB394F85100042802D00520DB
:1032200084F8510000206065C4F838A0E587A587C0
:10323000C4F830B0E586A586206460642068016823
:10324000490603D4016841F040010160E068B0F52F
:10325000006F606805D0E8B3012D46D07FE00127FC
:1032600095E008B1012D39D1206B21680088C86034
:10327000206B801C2063E08E401EE0862EE02068DC
:10328000816889070FD5E18E69B1B9F1010F0AD1C3
:10329000216B0988C160206B801C2063E08E401E7A
:1032A000E0864FF0000920688168C9070CD0E18FE3
:1032B00051B1C068A16B0880A06B801CA063E08F37
:1032C000401EE0874FF00109FFF76AF9A0EB080004
:1032D000B04200E009E001D3701C50D1E08E00281C
:1032E000CDD1E08F0028CAD13FE0206B2168007863
:1032F0000873206B401C2063E08E401EE0862EE0A9
:103300002068816889070FD5E18E69B1B9F1010F95
:103310000AD1216B09780173206B401C2063E08E79
:10332000401EE0864FF0000920688168C9070CD074
:10333000E18F51B1C068A16B0870A06B401CA06305
:10334000E08F401EE0874FF00109FFF729F9A0EB5D
:103350000800B04202D3701C01D010E07EB1E08EB4
:103360000028CDD1E08F0028CAD142463146204600
:1033700001F0CAFB28B101272020606507E0032780
:1033800005E0A06818B92068C16880680090012035
:1033900084F85100002084F8500038462CE710B51E
:1033A000401EB0F1807F01D3012010BD4FF0E0241A
:1033B00060610F21601702F097FA0020A0610720DA
:1033C0002061002010BD000070B590F83C20012A5B
:1033D00026D0012480F83C40022280F83D2003687A
:1033E0005A689D6822F070060A6832435A600D4B95
:1033F00002689A4208D0B2F1804F05D00A4B9A4237
:1034000002D00A4B9A4204D1496825F0800319433F
:10341000916080F83D40002180F83C10084670BD66
:10342000022070BD002C0140000400400008004054
:1034300010B5040003D094F83D0010B107E001205E
:1034400010BD002084F83C00204600F01FF8022048
:1034500084F83D00211D206801F0FAFD012084F868
:10346000460084F83E0084F83F0084F8400084F869
:10347000410084F8420084F8430084F8440084F852
:10348000450084F83D00002010BD000008B50C4A3E
:1034900001680C48914207D1816941F40061816162
:1034A000806900F4006009E0B1F1804F07D1C16983
:1034B00041F00101C161C06900F00100009008BD48
:1034C000002C01400010024070B5044690F83C000A
:1034D000012817D0012584F83C50022084F83D00D3
:1034E0002068826822F0770222F47F4282600868B6
:1034F000502830D00DDC20284DD005DC98B31028A2
:103500003BD148E0022070BD302844D0402834D15F
:1035100039E0602828D0702806D0B0F5805F2CD024
:10352000B0F5005F29D10AE0CB68D1E9012120681C
:1035300001F0D1FD2068816841F0770109E0CB6896
:10354000D1E90121206801F0C6FD2068816841F4BD
:103550008041816011E0CA684968206801F070FE0E
:103560005021206807E016E0CA684968206801F029
:1035700078FE6021206801F0B8FD84F83D500020FD
:1035800084F83C0070BDCA684968206801F058FEA4
:1035900040212068EFE7226801461046EBE7000073
:1035A00000B585B00021009101910291039100685E
:1035B000B0F1804F10D10948816941F00401816167
:1035C0008069694600F00400049002200090019098
:1035D00003900348FEF7EAFE05B000BD001002406C
:1035E0000008014070B5044690F83C000D460128E3
:1035F0000AD0012084F83C0042B1042A18D0082ADD
:103600002AD00C2A4DD139E0022070BD206801F08B
:1036100075FD2068816941F0080181612068816938
:1036200021F004018161206881692A69114311E058
:10363000206801F08BFD2068816941F4006181619F
:103640002068816921F480618161206881692A692B
:1036500041EA0221816124E0206801F0A3FD206895
:10366000C16941F00801C1612068C16921F004010C
:10367000C1612068C1692A69114311E0206801F025
:10368000BDFD2068C16941F40061C1612068C16964
:1036900021F48061C1612068C1692A6941EA02217F
:1036A000C161002084F83C0070BD10B5040003D057
:1036B00094F83D0010B107E0012010BD002084F80F
:1036C0003C00204600F01EF8022084F83D00211D39
:1036D000206801F0BDFC012084F8460084F83E001B
:1036E00084F83F0084F8400084F8410084F84200E8
:1036F00084F8430084F8440084F8450084F83D00D1
:10370000002010BD7047000010B50446022249B1E8
:1037100004290ED0082913D094F84100012816D0AE
:10372000012010BD94F83E000128F9D184F83E2014
:103730000FE094F83F000128F2D184F83F2008E020
:1037400094F840000128EBD184F8402001E084F88F
:1037500041200122206801F0B1FC0F492068884215
:1037600003D1426C42F4004242642068884208D08F
:10377000B0F1804F05D00949884202D008498842FB
:1037800004D1816801F00701062903D0016841F0E6
:1037900001010160002010BD002C01400004004028
:1037A0000008004070477047F8B50268044610688A
:1037B000D168536910F00F0F4FF0000554D003F09B
:1037C000010601F4907737435FD0C20705D0CA05E0
:1037D00003D5226C42F001022264420705D5DA07C4
:1037E00003D0226C42F002022264820705D5DA0778
:1037F00003D0226C42F004022264020707D501F0D4
:103800002002324303D0226C42F008022264226C70
:10381000002A35D0800604D5880602D5204601F05E
:1038200071FD20684069216CC0F3801001F008012F
:103830000143204625D001F04DFD2068416949062D
:103840001BD5416921F040014161A06BA8B15849E5
:103850004163A06BFEF7A4FC002811D0A06B416B64
:1038600001B0BDE8F040084783060ED58B060CD5A5
:103870002046BDE8F84001F045BD2046FFF793FF24
:10388000F8BDFFF790FF2564F8BD266B2023012EBD
:1038900052D1C60650D5CE064ED51068506800905D
:1038A000506940062AD5A16B086840680004000CE6
:1038B000EAD0A68D8642E7D9E0858869202818D00D
:1038C000D06820F48070D0602068416921F0010147
:1038D00041612068416921F04001416184F83E3036
:1038E00025632068C16821F01001C160A06BFEF75C
:1038F00033FCA08DE18D401A81B219E0A08DE18DDD
:10390000401A81B2E08D0028BED00029BCD0D0681A
:1039100020F49070D0602068426922F00102426178
:1039200084F83E3025632068C26822F01002C2602D
:103930002046FFF737FFF8BD05062BD50D0629D524
:1039400094F83D002128F6D1A068B0F5805F01D140
:103950002069B0B1206A411C21622168007848606A
:10396000E08C401E0004000CE084E4D12068C168B3
:1039700021F08001C1602068C16841F04001C16050
:10398000F8BD206A0088C0F308005060206A801CDF
:103990002062E5E74006F3D54806F1D5D168204618
:1039A00021F04001D16084F83D3000F02AF9F8BDE3
:1039B000C552000870B5040004D094F83D000025FD
:1039C00010B106E0012070BD84F83C50204600F0A4
:1039D00023F8242084F83D002068C16821F40051B8
:1039E000C160204601F0EAFC2068016921F49041A1
:1039F00001612068416921F02A0141612068C168A4
:103A000041F40051C1602564202084F83D0084F811
:103A10003E00002070BD000070B586B00024009408
:103A20000194029403942E4E03682E49022003222F
:103A30002D4DB34226D18B6943F480438B618B6952
:103A400003F4804304938B6943F004038B61896919
:103A5000039201F0040104910102CDE900106946CE
:103A60002846FEF7A3FC2815CDE900046946284640
:103A70000294FEF79BFC002211462520FEF784FFEE
:103A8000252028E0194EB34227D1CB6943F40033F7
:103A9000CB61CB6903F4003304938B6943F00403D7
:103AA0008B618969039201F0040104910421CDE93D
:103AB000001069462846FEF779FC0820CDE900048D
:103AC000694628460294FEF771FC00221146262022
:103AD000FEF75AFF2620FEF749FF06B070BD000032
:103AE000003801400010024000080140004400403E
:103AF00090F83E30202B0ED159B152B190F83C30A5
:103B0000012B08D0012380F83C300023036301F02F
:103B1000B1BC0120704702207047000010B500685A
:103B2000084988420DD1FEF73BFD0749C86000F007
:103B30003BFF05490122BDE81040091D0348FFF77E
:103B4000D7BF10BD003801401C0000206C0E0020C3
:103B50002DE9F843044690F83D001F4616460D46F1
:103B600020284CD1C5B1BEB194F83C00012846D004
:103B7000012084F83C004FF00008C4F84080212068
:103B800084F83D00FEF70CFDA6848146E684A0681B
:103B9000B0F5805F03D004E00120BDE8F883206920
:103BA00028B12E465FF0000584F83C800EE0002628
:103BB000FAE78021204601F078FCA0B9AEB116F8F2
:103BC000010B21684860E08C401EE084E08C4B468D
:103BD0004FF0000200970028EBD14FF04001204643
:103BE00001F063FC30B10320D7E735F8020BC0F3D6
:103BF0000800E6E7202084F83D000020CDE7022001
:103C0000CBE77047FEE7000010B502F08FFC0548D7
:103C1000C26B0548016805480068BDE81040FDF723
:103C20006FBD00001C0000200400002000000020E8
:103C300001684A69D24352050FD46FF480624A6129
:103C4000002140F8301F202242738173026942F044
:103C500004020261017301207047002070470000D8
:103C6000F8B50446C06A1E460D461746082807D018
:103C7000012805D010F5803F02D0206B122804D116
:103C80002068016841F480710160134600224FF002
:103C900001112046009600F057F840B120680068F6
:103CA000C00502D54FF4007020640320F8BD2069E0
:103CB000B0F5804F0ED00620216800EAD51040F004
:103CC000F000086133463A460B49204600F070F890
:103CD00078B902E005F0FE0000E0E8B22168086172
:103CE000054933463A46891F204600F061F800280E
:103CF000DCD00120F8BD00000800010070B51646B8
:103D00000D4604460DE02046FFF792FF08B1012062
:103D100070BD681C05D0FEF743FC801BA84207D885
:103D200035B120684069C0434007ECD4002070BD25
:103D3000002044F8300F20216173A073216941F005
:103D4000200121612073E2E72DE9F0471E469046ED
:103D50000D460446C1F30747DDF8209008E0701CCB
:103D600006D0FEF71DFCA0EB0900B0420FD876B1DB
:103D70002068012F18D0806925EA00000004000C9B
:103D800014D000214145EAD00020BDE8F087002092
:103D900044F8300F20216173A073216941F02001A4
:103DA000216120730120F0E74069E5E70121E9E79F
:103DB0002DE9F0479A4691460E46044600254FF0FD
:103DC0002008C1F3074725E020684069C04340054B
:103DD00014D42068016841F40071016021686FF417
:103DE00080604861256384F83D8084F83E50206CF3
:103DF00040F00400206484F83C501FE0B9F1FF3F1C
:103E000008D0FEF7CDFBA0EB0A0149450CD8B9F16B
:103E1000000F09D02068012F13D0806926EA000026
:103E20000004000C0BD0CFE744F8305F84F80D801D
:103E3000A573206940F02000206125730120BDE8B2
:103E4000F0874069EAE770B516460D4604460DE076
:103E50002046FFF7EDFE08B1012070BD681C05D0BB
:103E6000FEF79EFB801BA84207D835B12068406949
:103E7000C0430006ECD4002070BD002044F8300F91
:103E800020216173A073216941F020012161207319
:103E9000E2E710B5142000F07AF8800705D103217D
:103EA000BDE81040142000F094B810BD7CB5044665
:103EB000002529460D2000F022F9932020702020B3
:103EC000607001A823460090022219460C2000F0E1
:103ED0008CF8010009D1225C401C5540C0B2042876
:103EE000F9D3205CA84200D0022108467CBD70B501
:103EF0000C46054600F04BF820EA04012846BDE8D0
:103F0000704000F0FCB800001CB50E4B01EB8101C5
:103F100003EB410100226B4601EB420414F80A4C0A
:103F20009C54521CD2B2052AF6D30021425C5C5C40
:103F3000A24201D002201CBD491CC9B20529F5D3FB
:103F400000201CBD8A00002010B500F03EF88D2135
:103F50002A2000F0D4F83E212B2000F0D0F81E21BA
:103F60002D2000F0CCF800212C2000F0C8F87021A2
:103F7000262000F0C4F84021152000F0C0F83D21B3
:103F8000112000F0BCF8BDE81040FFF782BF7E2191
:103F900001EA400040F0800000F086BD7CB50C4690
:103FA000054607210D2000F0AAF8257001A8234638
:103FB0000090012219460C2000F017F818B9BDF83E
:103FC0000410102900D002207CBD0F21012000F038
:103FD00096B870B50C460546FFF7D9FF40EA0401D4
:103FE0002846BDE8704000F08AB82DE9FF5F002741
:103FF0000226DDF838A015468B468146B8460C28C7
:1040000005D0B9F10E0F05D11227102001E0772756
:104010003020804647F08001022000F070F88021B7
:104020000420FFF764FF80210A20FFF7D2FF002160
:10403000012000F064F8002406E01BF804100920B9
:1040400000F05DF8641CA4B2AC42F6D349460120EE
:1040500000F055F8B9F10C0F03D180210D20FFF7C6
:10406000B8FF4FF4FA650420FFF791FF6D1E2D0491
:1040700004462D0C04D0E00702D114EA080FF2D058
:1040800080210D20FFF733FF35B10620FFF77FFFBA
:1040900010F01B0F04D0022604B03046BDE8F09F9C
:1040A00000263C40E00700D00126B9F10C0FF3D107
:1040B0000A20FFF76CFF04460C20FFF768FF10F0A2
:1040C00007004FEAC40104D008390844AAF80000E8
:1040D00001E0AAF8001024B1102C04D91024002506
:1040E00003E00124FBE7002506E00920FFF74FFF6E
:1040F000039948556D1CADB2A542F6D3CCE77E229C
:1041000002EA400000F0E8BC3EB5002410480094EC
:10411000019402940D4984600160047304750125C3
:1041200005614FF460214460C161FDF743FE08B1B1
:10413000FDF732FDCDE90045694605480294FDF7DB
:10414000B7FD002801D0FDF727FD3EBD002401404A
:10415000000D00202DE9F04786B000253D48009570
:10416000019502950395816941F010018161816992
:1041700001F010010491816941F0200181618169A0
:1041800001F020010491816941F00401816181699C
:1041900001F004010491816941F0080181618069A5
:1041A000DFF8B48000F008004FF46044049001226E
:1041B00021464046FEF7EFF9DFF8A0A000224FF4B9
:1041C00088715046FEF7E7F9DFF89490012240F637
:1041D00003614846FEF7DFF94FF480770022394645
:1041E0004846FEF7D8F9009401AA0124022682E885
:1041F000700069464046FEF7D9F810208DE871003E
:1042000069465046FEF7D2F840F603708DE871001B
:1042100069464846FEF7CAF84FF23800CDE9000576
:10422000694602944846FEF7C1F80320CDE90240F2
:10423000CDE9007469465046FEF7B8F84FF41840CF
:10424000CDE90005694602945046FEF7AFF806B086
:10425000BDE8F08700100240001001400008014056
:10426000000C01400D4810B50B4901600C4941603C
:1042700000214FF480428160C0E9031241618161F5
:10428000C1610162FEF792F9002803D0BDE8104039
:10429000FDF782BC10BD000000540040300D00202E
:1042A000A0860100104810B50E4901604FF48271DC
:1042B000416000218160C1604FF400720161C0E97A
:1042C00005121022C0E90721416281620A21C16200
:1042D000FEF7E2FE002803D0BDE81040FDF75CBC0D
:1042E00010BD000000300140840D002010B586B0E4
:1042F00000241748009401940294039404941349F1
:10430000059401604721C0E901144CF24F31C0E926
:10431000031444618461FFF78BF808B1FDF73CFC9E
:104320004FF48050009069460948FFF7CDF808B176
:10433000FDF732FC049404A905480594FFF744F8FE
:10434000002801D0FDF728FC06B010BD002C01406C
:10435000DC0D002010B58EB0002407940894099459
:104360000A940B941C2168460C94FBF70AFF1E4824
:104370004FF0804101604821C0E9011444F61F61FB
:10438000C0E903148461FFF753F808B1FDF704FC9A
:104390004FF48050079007A91348FFF795F808B12C
:1043A000FDF7FAFB1048FFF780F908B1FDF7F4FBC1
:1043B0000B940BA90C480C94FFF706F808B1FDF715
:1043C000EBFB6020CDE90004029404226946064814
:1043D0000494FFF707F908B1FDF7DEFB0248FFF789
:1043E000DFF80EB010BD0000240E00200C4810B500
:1043F0000A4901604FF416514160002181600C228E
:10440000C160C0E904128161C161FFF7D3FA0028DD
:1044100003D0BDE81040FDF7BFBB10BD0038014020
:104420006C0E00200C4810B50A4901604FF416517B
:104430004160002181600C22C160C0E904128161E9
:10444000C161FFF7B7FA002803D0BDE81040FDF7BF
:10445000A3BB10BD00440040B00E0020FEE7704733
:10446000704710B500F082F800F0ACF800F0CCF81E
:1044700000F0ECF800F00CF900F02CF900F04CF929
:1044800000F02AF8BDE81040AFF3008070B5104C82
:10449000A06B01281BD10F4D08212846FEF776F8A6
:1044A000002814D1012060630402024621462846F8
:1044B000FEF771F8C820FDF7BFFE0022214628460E
:1044C000FEF769F8BDE87040C820FDF7B5BE70BDC5
:1044D0001C000020000C014010B50D4C202120468E
:1044E000FEF754F8002811D1C820FDF7A5FE2021C1
:1044F0002046FEF74BF80128F9D1FDF74DF8C8200A
:10450000FDF79AFEFEF74CF80249C86010BD0000A6
:10451000000C01401C00002010B50D48FDF7A2FD65
:10452000002814D164210A48FDF7FEFC00280ED1B2
:10453000084CE0630648FDF739FCE0630448FDF7EA
:10454000F1FDE16BBDE8104003A001F0A9B910BD79
:10455000000D00201C000020414443312D4D5132FC
:104560002D5041303A25640A0000000070B50F4D0F
:104570004FF4805421462846FEF708F8012814D14C
:104580000BA001F08DF9C820FDF756FE2146284604
:10459000FDF7FCFF0028F9D1FCF774FFC820FDF7F8
:1045A0004BFEFDF7FDFF0649C86070BD000C0140E1
:1045B0004E75742031206463206E68616E210A009C
:1045C0001C00002070B50E4D4FF4005421462846C3
:1045D000FDF7DCFF012811D1C820FDF72DFE214693
:1045E0002846FDF7D3FF0028F9D1FCF779FFC82052
:1045F000FDF722FEFDF7D4FF0249C86070BD000040
:10460000000C01401C00002070B50E4D4FF480449A
:1046100021462846FDF7BAFF012811D1C820FDF731
:104620000BFE21462846FDF7B1FF0028F9D1FCF723
:1046300085FFC820FDF700FEFDF7B2FF0249C86004
:1046400070BD0000000C01401C00002070B50E4D34
:104650004FF4004421462846FDF798FF012811D168
:10466000C820FDF7E9FD21462846FDF78FFF002809
:10467000F9D1FCF791FFC820FDF7DEFDFDF790FFB3
:104680000249C86070BD0000000C01401C00002001
:1046900070B50E4D4FF4006421462846FDF776FFB5
:1046A000012811D1C820FDF7C7FD21462846FDF796
:1046B0006DFF0028F9D1FCF79DFFC820FDF7BCFD78
:1046C000FDF76EFF0249C86070BD000000080140A0
:1046D0001C00002070B50E4D4FF480542146284632
:1046E000FDF754FF012811D1C820FDF7A5FD214693
:1046F0002846FDF74BFF0028F9D1FCF7A7FFC8209B
:10470000FDF79AFDFDF74CFF0249C86070BD00003F
:10471000000801401C00002070B50E4D4FF400440D
:1047200021462846FDF732FF012811D1C820FDF7A8
:1047300083FD21462846FDF729FF0028F9D1FCF723
:10474000B1FFC820FDF778FDFDF72AFF0249C860D8
:1047500070BD0000000801401C0000202DE9FC4154
:10476000FDF71EFF424C43F698260425216E401AA1
:10477000B04204D3607810B9A07801280AD0FDF7C0
:104780000FFF216E401AB04207D3607828B9A07895
:10479000022802D1A5700120E065002635492620B7
:1047A000FFF7FCFB002860D13248FFF77FFB0028B1
:1047B0005BD1FDF7F5FEE0602D4F00202D4D6837F1
:1047C000395C2A5C914201D0761CF6B2401CC0B222
:1047D0000528F5D330004FF0010604D026A001F0E3
:1047E0005FF8667002E028A001F05AF80020295C0A
:1047F0003954401CC0B20528F9D3607801280DD186
:10480000A078012802D0022804D005E0194800F061
:104810008DFE01E0FCF7BEFD002060702979E8788C
:10482000CDE90001AB786A7829781FA001F038F84B
:10483000012529460F48FFF767FB90B9A06C401C83
:10484000A06401280DD1294620A001F029F823A059
:1048500001F026F82663267000F044FBFDF7A0FE69
:1048600060646D1CEDB2062DE3D3BDE8FC81000051
:104870001C000020200100206C616E2071756574A1
:10488000206D6F69200A0D007468652064616E6791
:104890002064756F63206769752074616920637592
:1048A00061200A0D000000004D615468653A253012
:1048B00032782D253032782D253032782D25303242
:1048C000782D253032780D0A0000000054686520EC
:1048D0002564204F4B210A0D0000000053657276BD
:1048E0006F2053746172740A0000000070B5FDF708
:1048F00057FE184CE168401A40F2DC51884228D338
:10490000FCF770FC1448016814A000F0C9FF1548BA
:10491000016815A000F0C4FFFFF7FEFD00F006FBE4
:10492000FFF772F9124D08212846FDF72FFE0146C8
:1049300010A000F0B5FF20212846FDF727FE014614
:104940000FA000F0ADFF11A000F0AAFFFDF728FEB8
:10495000E06070BD1C000020000000204E443A259D
:10496000640A00000400002044413A25640A000063
:10497000000C0140646F6F723A25640A0000000069
:10498000746F696C65743A25640A00003D3D3D3DD5
:104990003D3D3D3D3D3D3D3D3D3D3D3D3D3D3D3D47
:1049A0003D3D3D0A0000000010B50A4802790A2A80
:1049B00005D0094BC16C5A54491CC16410BD06494D
:1049C00006A000F06DFF044800F070FEBDE8104046
:1049D00001F028BD1C000020380C002044617461E7
:1049E000204E68616E2064756F63206C613A2025EB
:1049F000730A00002DE9F047DFF8649001240025D8
:104A000004EB8401601E09EB410800EB80077E196E
:104A1000B0B2FF21FDF7B2F808EB4501B0B20A3998
:104A2000FDF74AF86D1CEDB2052DF0D3641CE4B21D
:104A3000062CE4D30BA000F033FF802001F0BCFD76
:104A40000CA001F0F9FD4FF47A70FDF7F5FB044876
:104A500001216E38C18004218170BDE8F08700001B
:104A60008A000020446120726573657420626F20A3
:104A70006E686F00464143544F525920524553458A
:104A8000542E2E2E2E0000000EB501238DF80400AA
:104A90000A20009002AA01A90248FEF78FFB9DF8A8
:104AA00008000EBD840D002070B50A4D044600229A
:104AB00010212846FDF76FFD2046FFF7E5FF002097
:104AC000FFF7E2FF0446012210212846FDF763FDAF
:104AD000204670BD0008014070B50A4C0E460546E0
:104AE000002210212046FDF756FD2846FFF7CCFF97
:104AF0003046FFF7C9FF2046BDE870400122102173
:104B0000FDF749BD0008014038B50B460092044648
:104B10000022802100F008F8002804D0606D40F0E9
:104B200020006065032038BD2DE9F8431E469146FC
:104B300088460446089DFDF733FD401B351AFDF7F6
:104B40002FFD074625480068C0F3CB30684338E0A6
:104B5000701C37D0FDF724FDC01BA84203D215B14D
:104B6000009860B32CE02068416821F0E0014160CA
:104B70006068B0F5827F0BD1A068B0F5004F02D01D
:104B8000B0F5806F04D12068016821F04001016018
:104B9000A06AB0F5005F09D12068016821F40051D6
:104BA00001602068016841F400510160012084F82F
:104BB0005100002084F850000320BDE8F883002550
:104BC000401E00902068816838EA010004D000216E
:104BD0004945BDD10020F0E70121F9E70801002097
:104BE000704700002DE9FF5F9C4B002003F59662A3
:104BF000014603F1C80403F5C87503F5167C03F5F7
:104C0000487603F57A7702F1C80902F5C87A02F509
:104C1000167B02F5487E1954215429540CF80010D3
:104C200031543954115409F800100AF80010DFF813
:104C300030820BF800100EF8001008F8001008F190
:104C4000C80808F8001008F1C80808F80010401C4F
:104C5000C828E0DB83A1A8F51660009A00F030FEBA
:104C600080A1A8F69800019A00F02AFE7DA1A8F57F
:104C7000FA60029A00F024FE7AA1A8F5E160039A96
:104C800000F01EFE77A1A8F5C8600E9A00F018FE8D
:104C900074A1A8F5AF600F9A00F012FE71A1A8F5FB
:104CA0009660109A00F00CFE6EA1A8F57A70119A29
:104CB00000F006FE6BA1A8F54870129A00F000FE05
:104CC00068A1A8F51670139A00F0FAFD65A1644872
:104CD000149A00F0F5FD63A1A8F1C800159A00F040
:104CE000EFFD60A14046169A00F0EAFD5EA15B4828
:104CF000FBF752FAA8F516615848FBF74DFA5CA18C
:104D00005648FBF749FA5BA15448FBF745FAA8F669
:104D100098015248FBF740FA55A15048FBF73CFA7E
:104D200056A14E48FBF738FAA8F5FA614B48FBF755
:104D300033FA4FA14948FBF72FFA52A14748FBF736
:104D40002BFAA8F5E1614548FBF726FA48A143484C
:104D5000FBF722FA4DA14148FBF71EFAA8F5C861FE
:104D60003E48FBF719FA42A13C48FBF715FA49A166
:104D70003A48FBF711FAA8F5AF613848FBF70CFA8F
:104D80003BA13648FBF708FA44A13448FBF704FA84
:104D9000A8F596613148FBF7FFF935A12F48FBF7DD
:104DA000FBF940A12D48FBF7F7F9A8F57A712B48DC
:104DB000FBF7F2F92EA12948FBF7EEF93BA12748B2
:104DC000FBF7EAF9A8F548712448FBF7E5F928A1B3
:104DD0002248FBF7E1F937A12048FBF7DDF9A8F5F8
:104DE00016711E48FBF7D8F921A11C48FBF7D4F92E
:104DF00032A11A48FBF7D0F919491848FBF7CCF94A
:104E00001BA11648FBF7C8F92EA11448FBF7C4F9FB
:104E1000A8F1C8011148FBF7BFF915A10F48FBF72E
:104E2000BBF92AA10D48FBF7B7F941460B48FBF740
:104E3000B3F929A10948FBF7AFF9084927A000F009
:104E40002FFD0648FBF7C6F904B082B2BDE8F05F5B
:104E50004FF47A7301492248FEF77ABE48010020D8
:104E6000E0090020256400007B224E44223A220003
:104E7000222C0000224441223A2200002244312206
:104E80003A220000224432223A22000022443322F5
:104E90003A220000224434223A22000022513122D8
:104EA0003A220000225132223A22000022513322BB
:104EB0003A22000022434F49223A22002243554120
:104EC000223A2200224952223A220000224D4F4427
:104ED00045223A2200000000227D0A0025730000CE
:104EE0006C0E002008B54FF4E160B42200904FF43E
:104EF00016730021104601F089FC02490968886395
:104F000008BD0000240E002008B540F6FC0000900B
:104F10004FF41673B4220021322001F077FC0249CD
:104F20000968886308BD0000240E002070B50D4C90
:104F30000D4E4FF40065D4E90F01884206D30BA053
:104F400000F0AEFC01200022E06205E00CA000F0C1
:104F5000A7FC00200122E06229463046BDE87040EF
:104F6000FDF719BB1C000020000C0140436F6920B5
:104F700042616F2053746172742121210A00000084
:104F8000436F692042616F2053746F702121210AA1
:104F90000000000070B50D4C2078002814D0FDF7FB
:104FA000FFFA616C401A41F2883188420CD3002527
:104FB000294607A0A56400F073FCFFF7A5FF257044
:104FC0002563FDF7EDFA606470BD00001C00002051
:104FD000256C642E536572766F2053746F700A00CF
:104FE00010B5FDF76BFCBDE81040FCF7D3B830B549
:104FF00093B028216846FBF7C4F814210AA8FBF7F0
:10500000C0F8002401200F9410941194010412940C
:105010008DE8130004904FF4E010CDE9081002254C
:1050200007956846FDF7A8FE0F20CDE90A0568023E
:10503000CDE90C4002210AA80E94FDF7B1FDA803AA
:1050400011900F950FA8FDF735FD13B030BD7047D7
:10505000F0B50268164B174C174D4FF08047984239
:1050600005D0B84203D0A04201D0A84203D122F01B
:1050700070064A683243984205D0B84203D0A04235
:1050800001D0A84203D122F44074CA6822434C697B
:1050900022F08002224302608A68C2620A68826249
:1050A000984201D10969016301214161F0BD00000D
:1050B000002C0140000400400008004010B501F041
:1050C0001F030121046A99408C430462016A9A40DB
:1050D0001143016210BD10B5846842EA032224F432
:1050E0007F440A432243826010BD826822F070022E
:1050F0000A4342F0070181607047000030B5026A40
:1051000022F001020262026A4368846924F0730596
:105110000C682C4322F002058A682A430A4DA842F3
:105120000BD122F00805CA6823F440732A434D6965
:1051300022F004021D438B692B434360846149685C
:105140004163026230BD0000002C014030B5026AAC
:1051500022F010020262026A436884690D6824F436
:10516000E64444EA05248D6822F0200242EA051252
:105170000B4DA8420ED1CD6822F0800242EA051202
:105180004D6923F4406343EA85038D6922F04002B0
:1051900043EA85034360846149688163026230BDEC
:1051A000002C014030B5026A22F480720262036A68
:1051B0004268C46923F4007324F073050C682C431F
:1051C0008D6843EA05230C4DA8420ED1CD6823F427
:1051D000006343EA05234D6922F4405242EA051276
:1051E0008D6923F4806342EA05124260C461496814
:1051F000C163036230BD0000002C014030B5026A7B
:1052000022F480520262046A4268C3690D6823F482
:10521000E64343EA05238D6824F4005444EA053448
:10522000064DA84204D14D6922F4804242EA85121B
:105230004260C36149680164046230BD002C0140D2
:1052400010B5036A046A24F001040462846924F03E
:10525000F00444EA021423F00A020A438461026261
:1052600010BD10B5036A23F0100303628369046A5A
:1052700023F4704343EA023224F0A00343EA01110D
:105280008261016210BD00000D4900220B685A6264
:105290000A68136843F00103136009684A6A82428E
:1052A000FCD3086A41F21112104207D1086A921029
:1052B000104203D1086820F0010008607047000028
:1052C000DC0D002010B5406A0021C185C184FEF7C5
:1052D0006AFA10BD0168CA6822F49072CA60016857
:1052E0004A6922F001024A61016B012904D1016877
:1052F000CA6822F01002CA60202180F83E10002106
:105300000163704708B590F83E10222901D00220B1
:1053100008BD82684FF480539A4201D1016921B1DE
:10532000816A9A421BD04AB10AE00268816A5268D7
:10533000C2F308020A80816A891C08E0026972B11E
:105340000268526802F07F020A70816A491C816219
:10535000C18D491E0904090CC18503D019E00268FA
:105360005268F1E70168CA6822F02002CA60016849
:10537000CA6822F48072CA6001684A6922F0010298
:105380004A61202180F83E10016B012903D0FEF70D
:10539000C5FB002008BD002101630168CA6822F036
:1053A0001002CA6001680A68D20602D50A68496814
:1053B0000091818DFEF7F6F9EBE7000070B5044629
:1053C00000680169E26821F44051114301612169DB
:1053D000A0680843616908432168CA6841F20C6308
:1053E0009A430243CA6020684169A26921F440716E
:1053F000114341611E492068884202D1FDF776FCC5
:1054000001E0FDF763FC00EBC00101EB00126068F6
:1054100064218000B2FBF0F3B3FBF1F36FF01806E8
:105420007343B2FBF0F5B2FBF0F605EB83053223D4
:1054300003EB0515B5FBF1F5B6FBF1F605F0F0054C
:1054400005EB0615B2FBF0F6B2FBF0F0B0FBF1F0A5
:105450006FF01802504306EB800003EB0010B0FB26
:10546000F1F0216800F00F002844886070BD000052
:105470000038014081628285C285002101642222B8
:1054800080F83E2080F83C100168CA6842F48072BF
:10549000CA6001684A6942F001024A610068C16855
:1054A00041F02001C160002070472DE9F04198468D
:1054B00017460E460446069D1DE0681C1BD02DB104
:1054C000FDF76EF8A0EB0800A84214D92068C16867
:1054D00021F4D071C1602068416921F0010141616E
:1054E000202084F83D0084F83E00002084F83C0031
:1054F0000320BDE8F0812068006836EA000004D08F
:105500000020B842D9D00020F3E70120F9E70000DD
:105510000148FEF749B900006C0E00200148FEF773
:1055200043B90000B00E0020FEE700002DE9F04373
:10553000DFF80C8185B08146012404EB840000254E
:1055400008EB4006601E00EB800700BF06EB45013C
:10555000781980B20A39FCF7AFFA6D1CEDB2052D4F
:10556000F4D3641CE4B2062CE7D3354D01246E3D20
:1055700021464846FEF7C8FC00285AD0641CE4B215
:10558000062CF5D32FA000F08BF9802001F014F841
:1055900014216846FAF7F5FDEA882EA1684600F066
:1055A0008FF9684601F048F800244646E88819F863
:1055B0000410401E00EB8000204480B2FCF7DEFAAD
:1055C000E88800EB8001401E06EB410100EB800003
:1055D00001EB4401204480B20A39FCF76DFA641CE7
:1055E000E4B2052CE2D3E888401CE880E88805286E
:1055F00001D90120E88081B21F20FCF7BFFAE988B9
:1056000001EB810208EB420030F8062C30F8024C26
:1056100030F8043C8DE81C0030F8083C30F80A2CC7
:1056200010A000F03DF9FCF7BBFF286605B0BDE80F
:10563000F083802000F0C0FF18A000F0FDFFD5E748
:105640008A00002041646420746865206D6F6920C1
:1056500076616F004944206C7575206C612025646B
:10566000200000004964206463206C757520766119
:105670006F20666C617368202564206C61203A207D
:10568000253032782D253032782D253032782D2571
:105690003032782D253032782000000054686520A3
:1056A0006461206269207472756E6700F0B589B01C
:1056B00000F034FE554C606670B155A000F0F0F873
:1056C00056A1606E00F01CFE554E564F002558B195
:1056D00055A000F0E5F80EE009B056A0BDE8F04096
:1056E00000F0DEB865631FE056A1606E00F008FEB2
:1056F000F0B1FBF7C7FE04F12C000DF1140C0FC83C
:105700008CE80F0004F11C000DF1040C0FC88CE8AC
:105710000F00A0690090D4E9042331683868FFF7CE
:1057200061FA606B0128DDD0FCF73AFFE06064E0CD
:1057300045A1606E00F0E4FD10B1FBF7D1FEDAE7A1
:1057400042A1606E00F0DCFD10B1FBF7F7FED2E77E
:105750003FA1606E00F0D4FD10B1FBF71DFFCAE75A
:105760003CA1606E00F0CCFD10B1FBF743FFC2E737
:1057700039A1606E00F0C4FD10B1FBF767FFBAE716
:1057800036A1606E00F0BCFD10B1FBF78BFFB2E7F5
:1057900033A1606E00F0B4FD60B131A1606E00F025
:1057A000AFFD0069FAF7D6FE014620642DA000F097
:1057B00077F822E033A1606E00F0A2FD10B1FBF794
:1057C00045FE98E732A1606E00F09AFDA8B130A1C5
:1057D000606E00F095FD00692FA1FAF7E9FC08B1B1
:1057E000A5630AE02AA1606E00F08AFD00692BA182
:1057F000FAF7DEFC08B10120A063FCF7D1FEE060FF
:10580000606E09B0BDE8F04000F056BD1C000020FD
:105810004A534F4E204F4B210D0A00005300000009
:10582000040000200000002053454E4420446174D1
:10583000610A00004A534F4E204552524F52210DEB
:105840000A000000443100004432000044330000EC
:105850004434000051310000513200005133000047
:105860004D5132004E67756F6E675F4D5132207437
:1058700068617920646F69206C613A2025640D0AA3
:10588000000000004F50454E434C4F534500000070
:105890004D4F444500000000300000003100000082
:1058A0000FB4054B10B503A9044A029800F050F953
:1058B00010BC5DF814FB00004964000810010020D2
:1058C0000FB4084B10B504A902AA039800F040F9E0
:1058D000044602A9002000F0D2FC204610BC5DF86E
:1058E00014FB00007F6200080907090E002804DB92
:1058F00000F1E02080F80014704700F00F0000F184
:10590000E02080F8141D7047004870471C010020FB
:1059100030B528B1144C031F002021680A4605E069
:10592000084630BD9A4203D810465268002AF9D181
:10593000002800D041680BD00468A3EB0005A54205
:1059400004D11B681C440346046002E0436000E08D
:1059500023603AB11C68D51AA54203D115682C44BE
:105960001C6052685A6030BD140100202DE9F047D8
:1059700082460F4C10480D4E0E4F001B4FF0000892
:1059800020F007054FF0010900221146504600F0B3
:10599000A5FD002802D1306810B10020BDE8F087D5
:1059A0003C60C4E90058C6F80090EDE718010020FB
:1059B0001C0F0020140100201811002002E008C86C
:1059C000121F08C1002AFAD170477047002001E079
:1059D00001C1121F002AFBD1704700002DE9FF5FB3
:1059E000DDE90220010DDDF838B0024318D044F69D
:1059F0001050A1F2FF3141430D140F98012820D01F
:105A0000A5EB0B00401C5FEA000A4FF00004474E74
:105A1000DFF81C91A046504616D5CAF1000728E0D1
:105A20000F98012443A2012808D0002100980F9B61
:105A3000C0E90021C0E90243BDE8FF9F6FEA0B0106
:105A4000F4E7CBF10000DEE7074612E0F80707D0E5
:105A50002246334640464946FAF7EBFF80468946E0
:105A60002246334610461946FAF7E3FF04460E462F
:105A70007F10002FEAD1DDE90201BAF1000F4246A2
:105A80004B4602DAFAF7D5FF01E0FBF744F804468B
:105A90000E460022284BFAF749FE03D84FF0FF309C
:105AA000014607E00022254B20463146FAF75FFD0C
:105AB000FBF7ACF8102409E0002C0ADB0A220023D3
:105AC000FAF762FE019B30321A55641E50EA010259
:105AD000F2D1641C019AC4F1110314440F9A012AF3
